{
  "_format": "hh-sol-artifact-1",
  "contractName": "SubscriptionManager",
  "sourceName": "contracts/SubscriptionManager.sol",
  "abi": [
    {
      "anonymous": false,
      "inputs": [
        {
          "indexed": true,
          "internalType": "address",
          "name": "subscriber",
          "type": "address"
        },
        {
          "indexed": false,
          "internalType": "string",
          "name": "serviceName",
          "type": "string"
        },
        {
          "indexed": false,
          "internalType": "uint256",
          "name": "paymentTime",
          "type": "uint256"
        }
      ],
      "name": "PaymentLogged",
      "type": "event"
    },
    {
      "anonymous": false,
      "inputs": [
        {
          "indexed": true,
          "internalType": "address",
          "name": "subscriber",
          "type": "address"
        },
        {
          "indexed": false,
          "internalType": "string",
          "name": "serviceName",
          "type": "string"
        },
        {
          "indexed": false,
          "internalType": "uint256",
          "name": "startTime",
          "type": "uint256"
        },
        {
          "indexed": false,
          "internalType": "uint256",
          "name": "duration",
          "type": "uint256"
        },
        {
          "indexed": false,
          "internalType": "uint256",
          "name": "nextPaymentDue",
          "type": "uint256"
        }
      ],
      "name": "Subscribed",
      "type": "event"
    },
    {
      "anonymous": false,
      "inputs": [
        {
          "indexed": true,
          "internalType": "address",
          "name": "subscriber",
          "type": "address"
        },
        {
          "indexed": false,
          "internalType": "string",
          "name": "serviceName",
          "type": "string"
        },
        {
          "indexed": false,
          "internalType": "uint256",
          "name": "cancelTime",
          "type": "uint256"
        }
      ],
      "name": "SubscriptionCancelled",
      "type": "event"
    },
    {
      "inputs": [
        {
          "internalType": "string",
          "name": "_serviceName",
          "type": "string"
        }
      ],
      "name": "cancelSubscription",
      "outputs": [],
      "stateMutability": "nonpayable",
      "type": "function"
    },
    {
      "inputs": [],
      "name": "getMySubscriptions",
      "outputs": [
        {
          "components": [
            {
              "internalType": "string",
              "name": "serviceName",
              "type": "string"
            },
            {
              "internalType": "uint256",
              "name": "startTime",
              "type": "uint256"
            },
            {
              "internalType": "uint256",
              "name": "duration",
              "type": "uint256"
            },
            {
              "internalType": "uint256",
              "name": "nextPaymentDue",
              "type": "uint256"
            },
            {
              "internalType": "bool",
              "name": "active",
              "type": "bool"
            }
          ],
          "internalType": "struct SubscriptionManager.Subscription[]",
          "name": "",
          "type": "tuple[]"
        }
      ],
      "stateMutability": "view",
      "type": "function"
    },
    {
      "inputs": [
        {
          "internalType": "string",
          "name": "_serviceName",
          "type": "string"
        }
      ],
      "name": "logPayment",
      "outputs": [],
      "stateMutability": "payable",
      "type": "function"
    },
    {
      "inputs": [
        {
          "internalType": "string",
          "name": "_serviceName",
          "type": "string"
        },
        {
          "internalType": "uint256",
          "name": "_duration",
          "type": "uint256"
        }
      ],
      "name": "subscribe",
      "outputs": [],
      "stateMutability": "payable",
      "type": "function"
    },
    {
      "inputs": [
        {
          "internalType": "address",
          "name": "",
          "type": "address"
        },
        {
          "internalType": "uint256",
          "name": "",
          "type": "uint256"
        }
      ],
      "name": "subscriptions",
      "outputs": [
        {
          "internalType": "string",
          "name": "serviceName",
          "type": "string"
        },
        {
          "internalType": "uint256",
          "name": "startTime",
          "type": "uint256"
        },
        {
          "internalType": "uint256",
          "name": "duration",
          "type": "uint256"
        },
        {
          "internalType": "uint256",
          "name": "nextPaymentDue",
          "type": "uint256"
        },
        {
          "internalType": "bool",
          "name": "active",
          "type": "bool"
        }
      ],
      "stateMutability": "view",
      "type": "function"
    }
  ],
  "bytecode": "0x6080604052348015600f57600080fd5b5061133a8061001f6000396000f3fe60806040526004361061004a5760003560e01c80632b36d9491461004f578063495dcbe31461007a578063623da3d114610096578063965d3aca146100d7578063b4a5dc65146100f3575b600080fd5b34801561005b57600080fd5b5061006461011c565b6040516100719190610a56565b60405180910390f35b610094600480360381019061008f9190610bed565b610282565b005b3480156100a257600080fd5b506100bd60048036038101906100b89190610ca7565b6103d8565b6040516100ce959493929190610d4f565b60405180910390f35b6100f160048036038101906100ec9190610da9565b6104c0565b005b3480156100ff57600080fd5b5061011a60048036038101906101159190610da9565b61069e565b005b60606000803373ffffffffffffffffffffffffffffffffffffffff1673ffffffffffffffffffffffffffffffffffffffff168152602001908152602001600020805480602002602001604051908101604052809291908181526020016000905b8282101561027957838290600052602060002090600502016040518060a00160405290816000820180546101af90610e21565b80601f01602080910402602001604051908101604052809291908181526020018280546101db90610e21565b80156102285780601f106101fd57610100808354040283529160200191610228565b820191906000526020600020905b81548152906001019060200180831161020b57829003601f168201915b505050505081526020016001820154815260200160028201548152602001600382015481526020016004820160009054906101000a900460ff1615151515815250508152602001906001019061017c565b50505050905090565b6000429050600082826102959190610e81565b90506000803373ffffffffffffffffffffffffffffffffffffffff1673ffffffffffffffffffffffffffffffffffffffff1681526020019081526020016000206040518060a00160405280868152602001848152602001858152602001838152602001600115158152509080600181540180825580915050600190039060005260206000209060050201600090919091909150600082015181600001908161033d9190611061565b5060208201518160010155604082015181600201556060820151816003015560808201518160040160006101000a81548160ff02191690831515021790555050503373ffffffffffffffffffffffffffffffffffffffff167f122434c064b46b8362efb5d739fea4f8c6a77203f7abfaaa41ed62f8f77ccbf0858486856040516103ca9493929190611133565b60405180910390a250505050565b600060205281600052604060002081815481106103f457600080fd5b90600052602060002090600502016000915091505080600001805461041890610e21565b80601f016020809104026020016040519081016040528092919081815260200182805461044490610e21565b80156104915780601f1061046657610100808354040283529160200191610491565b820191906000526020600020905b81548152906001019060200180831161047457829003601f168201915b5050505050908060010154908060020154908060030154908060040160009054906101000a900460ff16905085565b60008060003373ffffffffffffffffffffffffffffffffffffffff1673ffffffffffffffffffffffffffffffffffffffff16815260200190815260200160002090506000805b828054905081101561065857838051906020012083828154811061052d5761052c61117f565b5b906000526020600020906005020160000160405161054b9190611251565b604051809103902014801561058e575082818154811061056e5761056d61117f565b5b906000526020600020906005020160040160009054906101000a900460ff165b1561064b578281815481106105a6576105a561117f565b5b9060005260206000209060050201600201548382815481106105cb576105ca61117f565b5b906000526020600020906005020160030160008282546105eb9190610e81565b925050819055503373ffffffffffffffffffffffffffffffffffffffff167f14a4d80f48856c9070b0dec0271ae4c5b5524d362027fe3d0b3f2b4f8fdd3925854260405161063a929190611268565b60405180910390a260019150610658565b8080600101915050610506565b5080610699576040517f08c379a0000000000000000000000000000000000000000000000000000000008152600401610690906112e4565b60405180910390fd5b505050565b60008060003373ffffffffffffffffffffffffffffffffffffffff1673ffffffffffffffffffffffffffffffffffffffff16815260200190815260200160002090506000805b828054905081101561081457838051906020012083828154811061070b5761070a61117f565b5b90600052602060002090600502016000016040516107299190611251565b604051809103902014801561076c575082818154811061074c5761074b61117f565b5b906000526020600020906005020160040160009054906101000a900460ff165b156108075760008382815481106107865761078561117f565b5b906000526020600020906005020160040160006101000a81548160ff0219169083151502179055503373ffffffffffffffffffffffffffffffffffffffff167f2e5dfc4fa78b97cc5f93bcc57301952f009dc4429c8d1f557cb8f61ac8b708c485426040516107f6929190611268565b60405180910390a260019150610814565b80806001019150506106e4565b5080610855576040517f08c379a000000000000000000000000000000000000000000000000000000000815260040161084c906112e4565b60405180910390fd5b505050565b600081519050919050565b600082825260208201905092915050565b6000819050602082019050919050565b600081519050919050565b600082825260208201905092915050565b60005b838110156108c05780820151818401526020810190506108a5565b60008484015250505050565b6000601f19601f8301169050919050565b60006108e882610886565b6108f28185610891565b93506109028185602086016108a2565b61090b816108cc565b840191505092915050565b6000819050919050565b61092981610916565b82525050565b60008115159050919050565b6109448161092f565b82525050565b600060a083016000830151848203600086015261096782826108dd565b915050602083015161097c6020860182610920565b50604083015161098f6040860182610920565b5060608301516109a26060860182610920565b5060808301516109b5608086018261093b565b508091505092915050565b60006109cc838361094a565b905092915050565b6000602082019050919050565b60006109ec8261085a565b6109f68185610865565b935083602082028501610a0885610876565b8060005b85811015610a445784840389528151610a2585826109c0565b9450610a30836109d4565b925060208a01995050600181019050610a0c565b50829750879550505050505092915050565b60006020820190508181036000830152610a7081846109e1565b905092915050565b6000604051905090565b600080fd5b600080fd5b600080fd5b600080fd5b7f4e487b7100000000000000000000000000000000000000000000000000000000600052604160045260246000fd5b610ace826108cc565b810181811067ffffffffffffffff82111715610aed57610aec610a96565b5b80604052505050565b6000610b00610a78565b9050610b0c8282610ac5565b919050565b600067ffffffffffffffff821115610b2c57610b2b610a96565b5b610b35826108cc565b9050602081019050919050565b82818337600083830152505050565b6000610b64610b5f84610b11565b610af6565b905082815260208101848484011115610b8057610b7f610a91565b5b610b8b848285610b42565b509392505050565b600082601f830112610ba857610ba7610a8c565b5b8135610bb8848260208601610b51565b91505092915050565b610bca81610916565b8114610bd557600080fd5b50565b600081359050610be781610bc1565b92915050565b60008060408385031215610c0457610c03610a82565b5b600083013567ffffffffffffffff811115610c2257610c21610a87565b5b610c2e85828601610b93565b9250506020610c3f85828601610bd8565b9150509250929050565b600073ffffffffffffffffffffffffffffffffffffffff82169050919050565b6000610c7482610c49565b9050919050565b610c8481610c69565b8114610c8f57600080fd5b50565b600081359050610ca181610c7b565b92915050565b60008060408385031215610cbe57610cbd610a82565b5b6000610ccc85828601610c92565b9250506020610cdd85828601610bd8565b9150509250929050565b600082825260208201905092915050565b6000610d0382610886565b610d0d8185610ce7565b9350610d1d8185602086016108a2565b610d26816108cc565b840191505092915050565b610d3a81610916565b82525050565b610d498161092f565b82525050565b600060a0820190508181036000830152610d698188610cf8565b9050610d786020830187610d31565b610d856040830186610d31565b610d926060830185610d31565b610d9f6080830184610d40565b9695505050505050565b600060208284031215610dbf57610dbe610a82565b5b600082013567ffffffffffffffff811115610ddd57610ddc610a87565b5b610de984828501610b93565b91505092915050565b7f4e487b7100000000000000000000000000000000000000000000000000000000600052602260045260246000fd5b60006002820490506001821680610e3957607f821691505b602082108103610e4c57610e4b610df2565b5b50919050565b7f4e487b7100000000000000000000000000000000000000000000000000000000600052601160045260246000fd5b6000610e8c82610916565b9150610e9783610916565b9250828201905080821115610eaf57610eae610e52565b5b92915050565b60008190508160005260206000209050919050565b60006020601f8301049050919050565b600082821b905092915050565b600060088302610f177fffffffffffffffffffffffffffffffffffffffffffffffffffffffffffffffff82610eda565b610f218683610eda565b95508019841693508086168417925050509392505050565b6000819050919050565b6000610f5e610f59610f5484610916565b610f39565b610916565b9050919050565b6000819050919050565b610f7883610f43565b610f8c610f8482610f65565b848454610ee7565b825550505050565b600090565b610fa1610f94565b610fac818484610f6f565b505050565b5b81811015610fd057610fc5600082610f99565b600181019050610fb2565b5050565b601f82111561101557610fe681610eb5565b610fef84610eca565b81016020851015610ffe578190505b61101261100a85610eca565b830182610fb1565b50505b505050565b600082821c905092915050565b60006110386000198460080261101a565b1980831691505092915050565b60006110518383611027565b9150826002028217905092915050565b61106a82610886565b67ffffffffffffffff81111561108357611082610a96565b5b61108d8254610e21565b611098828285610fd4565b600060209050601f8311600181146110cb57600084156110b9578287015190505b6110c38582611045565b86555061112b565b601f1984166110d986610eb5565b60005b82811015611101578489015182556001820191506020850194506020810190506110dc565b8683101561111e578489015161111a601f891682611027565b8355505b6001600288020188555050505b505050505050565b6000608082019050818103600083015261114d8187610cf8565b905061115c6020830186610d31565b6111696040830185610d31565b6111766060830184610d31565b95945050505050565b7f4e487b7100000000000000000000000000000000000000000000000000000000600052603260045260246000fd5b600081905092915050565b60008190508160005260206000209050919050565b600081546111db81610e21565b6111e581866111ae565b94506001821660008114611200576001811461121557611248565b60ff1983168652811515820286019350611248565b61121e856111b9565b60005b8381101561124057815481890152600182019150602081019050611221565b838801955050505b50505092915050565b600061125d82846111ce565b915081905092915050565b600060408201905081810360008301526112828185610cf8565b90506112916020830184610d31565b9392505050565b7f41637469766520737562736372697074696f6e206e6f7420666f756e642e0000600082015250565b60006112ce601e83610ce7565b91506112d982611298565b602082019050919050565b600060208201905081810360008301526112fd816112c1565b905091905056fea26469706673582212208805eff17b554ec6bfdf962dc0fdfd2436e6fcdfa08181a8bd98362914245c8c64736f6c634300081c0033",
  "linkReferences": {},
  "deployedLinkReferences": {}
}